:100000008529FF3FFF3F213083120313FD00FD0BC5
:10001000072808000000000008000F3083120313B7
:10002000FC004730FD00FD0B1328FC0B13280000DB
:100030000000080083120313D51B202886112128F5
:100040008615551B2528061126280615D51A2A2897
:1000500086102B288614551A2F28061030280614CF
:100060004818342806163528061286160A208612E5
:10007000D5193C2886113D288615551941280611A9
:1000800042280615D5184628861047288614551884
:100090004B2806104C2806144818502806165128DC
:1000A000061286160A208612481C58280D20592848
:1000B000032008008312031348105408D5001A20A7
:1000C00048140800831203134B088A004A08820070
:1000D00008007B28803083120313D0008E28C030A4
:1000E000D0008E289430D0008E28D430D0008E28B6
:1000F0008030D0008E28831203135008013A031970
:100100006A285008023A03196F285008033A031965
:1001100072285008043A0319752878285103F00012
:100120005008F0077008D0007008D5001A20481059
:10013000D30153085207840000080319A728530865
:10014000520784000008D4005A20D30A9928481482
:100150000800831203134C08D0004D08D1004E084C
:10016000D200692008008030831203134C06F0008F
:100170008030013A7002031CC1280130D5001A20DA
:10018000C8284C08003A031DC8288030D5001A2022
:100190000800831603138612061206108610061135
:1001A0008611831286120612861106118610061019
:1001B0000D200D200D208614061486160A208612A6
:1001C0000D2086160A2086120D2086160A20861219
:1001D0000D20061086160A2086120D2086160A208B
:1001E00086128610861586160A2086120D20861124
:1001F000061486160A208612061086160A20861213
:100200000D2086160A208612061486160A208612EB
:100210000D20061086160A208612861506158614ED
:10022000061486160A2086120D2048140800831230
:100230000313F401F501F601F70180307706F000B1
:1002400080307002031D2E2900307602031D2E29F6
:10025000FD307502031D2E29E83074020318782939
:10026000F801F901FA01FB0180307B06F0008030D3
:100270004F067002031D46294E087A02031D4629C7
:100280004D087902031D46294C087802031860299D
:100290007808F0007908F1007A08F2007B08F30092
:1002A000F00A0319F10A0319F20A0319F30A700894
:1002B000F8007108F9007208FA007308FB0034298D
:1002C0007408F0007508F1007608F2007708F30072
:1002D000F00A0319F10A0319F20A0319F30A700864
:1002E000F4007108F5007208F6007308F7001D2984
:1002F000080062208A110A128000840ACA0A0319BF
:10030000CB0AF003031D792908007822831603170E
:1003100088018901831287138813C9200130CC001A
:10032000B320CC01B320402A0130CC000130CD00F5
:100330003330CE00A9200130CC00CD01CE01CF0159
:1003400017210130CC00B3200130C90093290130BE
:10035000CC000130CD002030CE00A9200130CC00EF
:10036000CD01CE01CF0117210130CC00B3200230E6
:10037000C90093290330C900C401C501C601C701E2
:1003800080304706F00080307002031DD129003014
:100390004602031DD12900304502031DD129043036
:1003A00044020318FA290130CC000130CD002F306F
:1003B000CE00A9201C30D5001A20CC01CD01CE01E1
:1003C000CF0117214408F0004508F1004608F2006B
:1003D0004708F300F00A0319F10A0319F20A031996
:1003E000F30A7008C4007108C5007208C6007308DB
:1003F000C700C029C401C501C601C7018030470636
:10040000F00080307002031D0F2A00304602031DE9
:100410000F2A00304502031D0F2A0330440203183F
:10042000382A0130CC000130CD002F30CE00A92079
:100430001830D5001A20CC01CD01CE01CF011721F3
:100440004408F0004508F1004608F2004708F300B0
:10045000F00A0319F10A0319F20A0319F30A7008E2
:10046000C4007108C5007208C6007308C700FE29E1
:100470004908033A031D3F2A0130CC00B3204C2A1F
:100480004908003A031994294908013A0319A72990
:100490004908023A0319BA2993294D2AFF3FFF3F21
:1004A000FF3FFF3FFF3F5334693473347434653486
:1004B0006D346134203473347434613462346C3498
:1004C000653400344F346C346134003449346E3454
:1004D00069346334693461346C342E3420347334B9
:1004E00069347334743465346D3461340034FF3FDF
:1004F00020308400243083120313F0005330CA00EC
:100500000230CB0079210800FF3FFF3FFF3FFF3F54
:04400E00F22F000786
:00000001FF
